:020000040000FA
:10000000000100206D020000810200008302000058
:10001000850200008502000085020000000000004B
:100020000000000000000000000000008502000049
:10003000850200000000000085020000850200002B
:100040008502000085020000850200008502000094
:100050008502000085020000850200008502000084
:100060008502000085020000850200008502000074
:100070008502000085020000850200008502000064
:100080008502000085020000850200008502000054
:100090008502000085020000850200008502000044
:1000A0008502000085020000850200008502000034
:1000B0008502000085020000850200008502000024
:1000C0008502000085020000850200008502000014
:1000D0008502000085020000850200008502000004
:1000E0008502000000000000000000008502000002
:1000F00085020000850200008502000085020000E4
:1001000085020000850200008502000085020000D3
:1001100000000000000000008502000085020000D1
:1001200085020000850200008502000085020000B3
:1001300085020000850200008502000085020000A3
:1001400000000000000000000000000000000000AF
:100150008502000085020000850200008502000083
:10016000000000000000000000000000000000008F
:10017000000000000000000000000000000000007F
:10018000000000000000000000000000000000006F
:10019000000000000000000000000000000000005F
:1001A000000000000000000000000000000000004F
:1001B0008502000085020000850200008502000023
:1001C0008502000085020000850200008502000013
:1001D0008502000085020000850200008502000003
:1001E000850200008502000085020000000000007A
:1001F000000000008502000085020000850200006A
:1002000085020000850200000000000000000000E0
:1002100085020000850200008502000085020000C2
:1002200085020000850200008502000085020000B2
:1002300085020000850200008502000085020000A2
:100240008502000085020000850200008502000092
:100250008502000085020000850200008502000082
:100260008502000085020000850200004EF68850DD
:10027000CEF20000016841F47001016000F004B8A2
:10028000FEE7FEE7FEE70000DFF80CD000F00AF81A
:100290000048004791080000000100200138FDD10E
:1002A00070470000064C074D06E0E06840F001038F
:1002B00094E8070098471034AC42F6D3FFF7E8FF04
:1002C000140B0000240B000010B5054800F09EF947
:1002D00000F056FABDE81040024800F058BA00009D
:1002E000403D80070024F400D0F8003412F0010FE4
:1002F00014BF0B438B43C0F8003412F0020FD0F848
:10030000202414BF114322EA0101C0F820147047D1
:100310002DE9F00301264FF0000C0325C2F341172D
:1003200006FA0CF40C4211D0D0F8C48F4FEA4C04FA
:1003300005FA04F928EA0908C0F8C48FD0F8C48F78
:1003400007FA04F448EA0404C0F8C44F0CF1010CA5
:100350000CF0FF0CBCF1080FE2D3D0F800C512F08E
:10036000010F14BF4CEA010C2CEA010CC0F800C5C7
:10037000D0F804C512F0020F14BF4CEA010C2CEAAD
:10038000010CC0F804C5D0F808C512F0040F14BF62
:100390004CEA010C2CEA010CC0F808C5D0F818C5CD
:1003A00012F0080F14BF4CEA010C2CEA010CC0F843
:1003B00018C512F0100FD0F83C2514BF0A438A4329
:1003C000C0F83C25D0F80C2513F0010F14BF0A43E8
:1003D0008A43C0F80C25D0F8102513F0020F14BF83
:1003E0000A438A43C0F81025D0F8142513F0040FEF
:1003F00014BF0A438A43C0F81425D0F81C2513F013
:10040000080F14BF0A438A43C0F81C25D0F84425BE
:1004100013F4007F14BF0A438A43C0F84425D0F880
:10042000402513F4407F14BF0A438A43C0F8402597
:10043000D0F82825002B0CBF114322EA0101C0F897
:100440002815BDE8F003704730B50C460546082373
:100450000122FFF75DFF21462846BDE8304001221A
:10046000FFF742BF30B50C4605460222FFF73CFFBE
:1004700021462846BDE8304008230122FFF748BF47
:1004800040F821207047000010B5044800F04EF9F4
:10049000BDE8104008210248FFF7D6BF050800F06C
:1004A0000050024010B5FFF70FFFFFF7EDFFBDE86A
:1004B000104000F0A9B9000070B44B4D2A6E296FAE
:1004C00011F0004F14BF01F0700002F0300020283E
:1004D00008BF464818D005DC88B1102808BF44483A
:1004E00012D009E0302808BF47F230500CD07028F5
:1004F00008BF4FF4004007D070BC002070477C203C
:100500003C4B00EA121018584FF0FF3311F0004F27
:1005100002D011F4006F06D001F0004C02F4006428
:100520005CEA040C36D1D5F860C1D5F8644104F01A
:100530001F06C4F30424641C761C16FB04F4640038
:10054000B0FBF4F0CCF309044443CCF3892C00FB5A
:100550000CF0D5F810C004EB902042F480020CF4AB
:10056000704CBCF5804F08BF234B13D009DCBCF5A1
:10057000005F08BF214B0DD0BCF5405F08BF204B8A
:1005800008E0BCF5E04F08BF1E4B03D0BCF5104F90
:1005900008BF1D4B12F4800F21D011F0004F19D06D
:1005A00011F0804F09D011F4006F0CD001F0004C15
:1005B00002F400625CEA020205D0C1F3C551491C95
:1005C000B0FBF1F00BE04000C1F38651491CB0FBD9
:1005D000F1F004E0C2F3C351491CB0FBF1F08342D7
:1005E00038BF184670BC704700E00F4000093D005E
:1005F0000024F400C8080000005A620200B4C404D9
:1006000080F0FA0240787D01002D3101434B30B477
:10061000196E1A6F21F4800141F4006142F4006404
:1006200019661C6721EA000212F0010F14D060F075
:10063000010211409A159A651966D3F850C0D2028A
:100640001CF4807F08D1521E04BF30BC7047D3F821
:1006500050C01CF4807FF6D021F4FE6100F4FE62ED
:100660001143DFF8BCC024F0700222F0004200EA1F
:100670000C0C4CEA020200F0080C42EACC021966AB
:100680001A6700F4005C21F4005122F400524CEA95
:1006900001014CEA02024FF0400CC3F858C012F0BE
:1006A000004F08BF19661A6718BF196621F00101CB
:1006B000DFF870C021F0F86100EA0C0C4CEA01018F
:1006C00022F0FC5200F0FC5C4CEA020210F0804F79
:1006D00008BF22F0804209D0DFF84CC022F480022B
:1006E00000EA0C0C41F480014CEA020210F4006FA5
:1006F00008BF4FF400400AD1D3F868C11CF0010FC5
:1007000001D1401EF8D121F4006122F40062196683
:100710001A6730BC1020FFF7C1BD000000E00F4099
:10072000300000800100C00700004040C0F30723F4
:100730000749C0B2194401F07043C1F3130143EA01
:10074000411141EA800040F00070012202607047D0
:1007500000E60F40C0F307220849C0B2114401F07F
:100760007042C1F3130142EA411141EA800040F0B6
:1007700000700068002818BF0120704700EA0F4091
:100780004FF0E020016941F00501016170474FF031
:10079000E021401E48617047D0F818C01CF0080FD7
:1007A000FAD1D0F82CC02CF0100CC0F82CC0D0F826
:1007B00030C02CF0010C2CF4407CC0F830C0D0F8D4
:1007C00030C0B1EB021F34BF4CF0200C2CF0200CD9
:1007D000C0F830C038BF5208C900B1FBF2F1491C63
:1007E00049088A09426201F03F018162C362002127
:1007F0008161C16A41F01001C162016B40F20132B6
:10080000114301637047000010B50F4C2046FFF7FD
:100810008DFF2046FFF79EFF0028FAD00B48FFF718
:10082000F5FE0B48FFF782FF06214FF04020FFF74F
:1008300019FEFFF741FE0146BDE8104060234FF46A
:1008400016420448FFF7A8BF001800F0403D80079B
:10085000000800F000C0004002E008C8121F08C1F4
:10086000002AFAD170477047002001E001C1121F31
:10087000002AFBD1704710B50446FFF71DFE40F675
:10088000B831B0FBF1F06043BDE81040FFF706BDA2
:10089000FFF708FE094D4FF47A740F22082128460D
:1008A000FFF7EEFD2046FFF7E6FF0022082128466D
:1008B000FFF7E6FD2046FFF7DEFFEEE700500240BF
:1008C00000688909001C4E0E40420F0000201C00E9
:1008D00080841E0000802500999E3600004038006C
:1008E00000093D0000803E0000004B00404B4C00E2
:1008F00000204E00808D5B0000C05D000080700015
:1009000000127A0000007D0080969800001BB7005E
:100910000080BB00C0E8CE00647ADA000024F40056
:100920000000FA0080A81201002D310100366E018E
:1009300040787D0140000000000000000001000040
:100940003E0008000000000000010000A0000000C0
:10095000020000000001000034540100000000000B
:10096000000100002B7006000000000000010000E4
:100970002800000000000000000100002700010026
:100980000000000000010000200000000000000046
:100990000001000050000000020000000001000003
:1009A0001AAC0000000000000001000017940900CC
:1009B0000000000000010000169805000000000083
:1009C0000001000014000000000000000001000011
:1009D000138008000000000000010000A0000000DB
:1009E00008000000000100001000000000000000EE
:1009F00000010000280000000200000000010000CB
:100A00004000000004000000000100006000000041
:100A100000000000000100005D000C00000000006C
:100A20000001000050000000000000000001000074
:100A30004E000200000000000001000041AC010077
:100A400000000000000100003C0000000000000069
:100A5000000100003A8009000000000000010000D1
:100A6000300000000000000000010000280000002D
:100A7000000000000001000027000100000000004D
:100A800000010000236006000000000000010000DB
:100A90002160080000000000000100001E000000AE
:100AA00000000000000100001DC004000000000064
:100AB00000010000500000000200000000010000E2
:100AC00018000000000000000001000014000000F9
:100AD00000000000000100006000000004000000B1
:100AE000000100000024F40030003000005A6202CF
:100AF0009100910000879303D200D20000B4C40497
:100B00001301130100E1F50554015401000E2707FC
:100B100095019501240B0000000000200001000059
:040B20006808000061
:040000050000026D88
:00000001FF
