:020000040000FA
:10000000980700206D0200008102000083020000BA
:10001000850200008502000085020000000000004B
:100020000000000000000000000000008502000049
:10003000850200000000000085020000850200002B
:100040008502000085020000850200008502000094
:100050008502000085020000850200008502000084
:100060008502000085020000850200008502000074
:100070008502000085020000850200008502000064
:100080008502000085020000850200008502000054
:100090008502000085020000850200008502000044
:1000A0008502000085020000850200008502000034
:1000B0008502000085020000850200008502000024
:1000C0008502000085020000850200008502000014
:1000D0008502000085020000850200008502000004
:1000E0008502000000000000000000008502000002
:1000F00085020000850200008502000085020000E4
:1001000085020000850200008502000085020000D3
:1001100000000000000000008502000085020000D1
:1001200085020000850200008502000085020000B3
:1001300085020000850200008502000085020000A3
:1001400000000000000000000000000000000000AF
:100150008502000085020000850200008502000083
:10016000000000000000000000000000000000008F
:10017000000000000000000000000000000000007F
:10018000000000000000000000000000000000006F
:10019000000000000000000000000000000000005F
:1001A000000000000000000000000000000000004F
:1001B0008502000085020000850200008502000023
:1001C0008502000085020000850200008502000013
:1001D0008502000085020000850200008502000003
:1001E000850200008502000085020000000000007A
:1001F000000000008502000085020000850200006A
:1002000085020000850200000000000000000000E0
:1002100085020000850200008502000085020000C2
:1002200085020000850200008502000085020000B2
:1002300085020000850200008502000085020000A2
:100240008502000085020000850200008502000092
:100250008502000085020000850200008502000082
:100260008502000085020000850200004EF68850DD
:10027000CEF20000016841F47001016000F004B8A2
:10028000FEE7FEE7FEE70000DFF80CD000F020F804
:100290000048004761140000980700200138FDD194
:1002A000704730B50B46014600202022012409E0AA
:1002B00021FA02F59D4205D303FA02F5491B04FA1F
:1002C00002F52844151EA2F10102F1DC30BD000048
:1002D000064C074D06E0E06840F0010394E8070093
:1002E00098471034AC42F6D3FFF7D2FFBC1A000097
:1002F000DC1A000030B58C1810F8012B12F00F0337
:1003000001D110F8013B120906D110F8012B03E0CE
:1003100010F8015B01F8015B5B1EF9D101E001F807
:10032000013B521EFBD1A142E6D3002030BD0000AC
:10033000B1FBF2F3B1FBF3FC70B4944588BF5B1CD6
:10034000B3F5984F27D81322B3FBF2FC0CFB02F451
:100350009C4219D1114B03EB420333F8085C03684C
:100360009BB243F041040460ACF1010404F03F0689
:100370003543C560C4F38314846103600CFB02F051
:10038000B1FBF0F070BC7047521E042ADCD25B1C3B
:10039000B3F5984FD7D970BC0020704714150000F2
:1003A000016821F001010160704701210160016ACB
:1003B00011F4004FFBD1B021416200214163816300
:1003C0000121026A12F4004FFBD10162491C20296D
:1003D000F7D90C2141620121026A12F4004FFBD1CE
:1003E0000162491C2029F7D940687047B1F5004FD8
:1003F00004BF40687047026A12F4004FFBD1082224
:10040000426201F03F010162016A11F4004FFBD129
:1004100070470268114301607047000070B50F4ECD
:100420000021304600F064F801250D4CB0F5004F76
:1004300006D001280AD0BDE870400AA000F030BF05
:100440000021304600F0D4F9257070BD01213046FE
:10045000FFF7CCFF65700020207070BD00000440E5
:1004600000000020556E65787065637465642043F4
:10047000414E2062757320696E7465727275707476
:100480000A0000002DE9F041154A00241368DFF846
:1004900054C0164D03EA0C06134BA6F18057B7F56E
:1004A000A02708D0126802EA0C02A2F1805CBCF519
:1004B000202C06D00CE0984209D0A84208BF38246E
:1004C00006E0984208BF362402D0A84200D1372463
:1004D000204600F08DFC2046BDE8F04100F056BCFF
:1004E00000E00F400000FF700000044000100440D6
:1004F000002904BF0069704701291CBF0020704714
:10050000D0F84011D0F8440189B241EA0040704768
:100510002DE9F0014FF0730C002B18BF4FF07B0C4E
:10052000C0F884C001F03F06C0F88060D0F88010A9
:1005300011F4004FFAD1D0F888108DB2D0F88C1099
:100540001FFA81FCD0F890108CB2D0F894108BB2C6
:10055000D0F89810002789B211F4807F03F4005876
:10056000976003D0B8F1000F03D006E0B8F1000F98
:1005700003D04FF04008C2F8088013F4804F04BF46
:10058000C3F38A04146008D0C3F30C0844EA084497
:100590001460946844F00404946011F4804F03D014
:1005A000946844F48074946011F4805F2DD013F447
:1005B000804F0DD0CCF30C0345EA03436FF0604449
:1005C0005360A3420FD1137A13F0400F0FD10AE00A
:1005D000CCF38A03A3F5E0645360FF3C03D1137AA4
:1005E00013F0400F03D1936843F0080393601CF4A9
:1005F000004F03D0936843F0280393601CF4804FAE
:1006000003D0936843F01803936011F4006F03D094
:10061000936843F00103936011F4806F03D09368F3
:1006200043F00203936011F4004F02BFD760BDE8AE
:10063000F001704701F00F0CC2F80CC0117A11F0F4
:10064000400F11D10021156900F19C03BCF1000F8E
:100650000AD953F8044B6C54491C8C4502D9240A1E
:100660006C54491C6145F4D30421C0F88410C0F8CF
:100670008060D0F8801011F4004FFAD1906840F0FB
:1006800080009060BDE8F00170472DE9FF4F4FF00A
:10069000000A016A11F4004FFBD1D2F80090B9F5BD
:1006A000006F06D2117A11F0040F08BF4FF0000B53
:1006B00001D04FF0010B00274FF093083D4639461B
:1006C0003E46BC46052B24BF04B0BDE8F08FDFE8F2
:1006D00003F003071A0A14004FF480714D0110E073
:1006E0004FF480710FE04FF4005569104FF6FF761C
:1006F00041F6FF7C4FF0D30805E04FF400554FF46E
:1007000090514FF0010A946841F6FF7314F0080FFE
:100710000CD0BBF1000F08BF0026D2F804C00EBFFA
:1007200003EA8C0C1FFA8CF6CCF30C4C4FF0280E1D
:100730003EEA040E08BF4CF4004C4FF0180E3EEA9F
:10074000040E08BF4CF4804C14F0380F1CBF41F469
:10075000805148F0400848F02008BBF1000F07D056
:10076000C9F30C431FFA89F72B4343F4404904E0D3
:1007700003EA89032B4343F40049D56805F00F03CE
:100780000B4314F4007F08BF43F0800314F0010F03
:1007900018BF43F4006314F0020F18BF43F48063E2
:1007A000BAF1000F14D00021D2F810A000F13C04DF
:1007B000002D0DD91AF80120491C8D4204D91AF8D0
:1007C00001B0491C42EA0B2244F8042BA942F1D3A0
:1007D000C0F824808662C0F82CC00763C0F834904B
:1007E0008363019901F03F01016204B0BDE8F08F1D
:1007F000C1B1012904BFD0F80011D0F8040116D00E
:10080000022904BFD0F82011D0F824010FD0032909
:1008100011BF0021D0F86011D0F8640141EA004115
:100820000846704741686FF01F024260F8E741EAEE
:100830000041F5E710B51E4800F07EFC1DA000F059
:100840002FFD234800F022FA22A000F029FD2748BE
:1008500000F01CFA3021264800F03AFA254800F052
:100860006BFC25A000F01CFD2A4C2046FFF79DFDE7
:1008700000F028FB0146284A2046FFF759FD27A033
:1008800000F00EFD30492046FFF7FCFD0E2120460A
:10089000FFF7BFFD372000F079FA2046FFF780FD13
:1008A0002AA000F0FDFCBDE8104000F057BA00009F
:1008B000040800F00A496E697469616C697A696EAE
:1008C000672043414E3052582E2E2E0A0000000061
:1008D00008100400496E697469616C697A696E6711
:1008E0002043414E3054582E2E2E0A000814040086
:1008F00000400240003400F0496E697469616C691F
:100900007A696E672043414E305F424153452E2E37
:100910002E0A00000000044020A1070053657474F3
:10092000696E672043414E20426974526174653A92
:1009300020302E35204D65676162797465732F73A1
:1009400065632E2E2E0A00001D04000043414E2038
:10095000496E697469616C697A65642E0A0A0000DF
:1009600008B52C4ADFF8B0A0022393460121504677
:10097000FFF78BFE29A000F093FCDFF8C490DFF8AE
:10098000C4804D4699F801000028FAD000235A4649
:1009900001215046FFF7BCFD002202214646404699
:1009A00000F0C0F900220421304600F0BBF900221B
:1009B0000821304600F0B6F9002068701548143858
:1009C000808BC00502D520A000F06AFC200EC4F385
:1009D0000746C4F30725E1B200900F4633462A4686
:1009E00020A000F05DFC802F04D10F2202214046A0
:1009F00000F098F9802D04D10F220421404600F028
:100A000091F9802EBDD10F220821404600F08AF9CD
:100A1000B7E7000080060020000004400A0A496E83
:100A2000697469616C697A696E67206E6F646520AC
:100A3000617320736C6176652E2E2E0A0000000013
:100A4000000000200050024043414E206D6573734A
:100A5000616765206C6F737320646574656374658A
:100A6000640A0000526563656976656420636F6C93
:100A70006F757209723A2025642020623A2025643D
:100A80002020673A2025642020693A2025640A0046
:100A900070B50E4D01786C68217042786270837871
:100AA000A370C078E0700AA000F0FAFB0023114A9E
:100AB00001211148FFF7E9FD2878002804D0BDE89E
:100AC00070400EA000F0ECBB70BD000000000020E4
:100AD00053656E64696E6720636F6C6F757209721F
:100AE0003A20256409673A20256409623A20256482
:100AF0000A0000006C0600200000044043414E2024
:100B0000427573204572726F720A000010B5054875
:100B100000F082FA00F03AFBBDE81040024800F015
:100B20003CBB0000403D80070024F400D0F80034B6
:100B300012F0010F14BF0B438B43C0F8003412F0C6
:100B4000020FD0F8202414BF114322EA0101C0F89B
:100B5000201470472DE9F00301264FF0000C032507
:100B6000C2F3411706FA0CF40C4211D0D0F8C48F2E
:100B70004FEA4C0405FA04F928EA0908C0F8C48FC2
:100B8000D0F8C48F07FA04F448EA0404C0F8C44F4C
:100B90000CF1010C0CF0FF0CBCF1080FE2D3D0F803
:100BA00000C512F0010F14BF4CEA010C2CEA010C35
:100BB000C0F800C5D0F804C512F0020F14BF4CEA0B
:100BC000010C2CEA010CC0F804C5D0F808C512F0DD
:100BD000040F14BF4CEA010C2CEA010CC0F808C544
:100BE000D0F818C512F0080F14BF4CEA010C2CEA1B
:100BF000010CC0F818C512F0100FD0F83C2514BF36
:100C00000A438A43C0F83C25D0F80C2513F0010FA5
:100C100014BF0A438A43C0F80C25D0F8102513F0FE
:100C2000020F14BF0A438A43C0F81025D0F81425D8
:100C300013F0040F14BF0A438A43C0F81425D0F8F8
:100C40001C2513F0080F14BF0A438A43C0F81C2563
:100C5000D0F8442513F4007F14BF0A438A43C0F838
:100C60004425D0F8402513F4407F14BF0A438A433B
:100C7000C0F84025D0F82825002B0CBF114322EAEC
:100C80000101C0F82815BDE8F00370470E4AC0F313
:100C90000741D26E01238B401A420C4A1ABF02EB65
:100CA000C101496852F83110020AD1F82C354FF0D1
:100CB0000F0C0CFA02FC00F00F0023EA0C0390402A
:100CC0001843C1F82C05704700E00F40CC16000017
:100CD00030B50C4605460222FFF728FF214628467C
:100CE000BDE8304008236622FFF734BF30B50C461C
:100CF000054608230122FFF72DFF21462846BDE8BF
:100D000030400122FFF712BF30B50C4605460222E3
:100D1000FFF70CFF21462846BDE83040082301229A
:100D2000FFF718BF40F821207047000010B50948B0
:100D300000F002FA084C02212046FFF7D7FF0421F9
:100D40002046FFF7D3FF2046BDE810400821FFF7FB
:100D5000CDBF0000050800F0005002400948012105
:100D60000022C0E9001281600421C160064949687F
:100D7000C0E9041282610A22C2610822C0E9082186
:100D8000704700006C06002000000020164904286F
:100D900004BF086840F4803018D0052804BF0868F4
:100DA00040F4003012D0062812D00F2815D0102899
:100DB00038BF7047103800F01F01012202FA01F11C
:100DC00042090A4850F822000160704708607047E5
:100DD000086840F48020086070474FF0E020016907
:100DE00041F002010161704724ED00E01818000095
:100DF00030B40A4D2A680A4B9A421CBFD5F800C08D
:100E0000002207D05CF8224043F82240521C9B2A63
:100E1000F8D32B6043F8201030BC704708ED00E099
:100E20000004002010B5FFF771FEFFF77FFF00F010
:100E300003FA07A000F034FA0EA000F031FA14A073
:100E400000F02EFABDE8104019A000F029BA000009
:100E5000446562756767696E6720696E746572665E
:100E600061636520696E697469616C697A65642E75
:100E70002E2E0A004750494F20706F7274732069FC
:100E80006E697469616C697A65642E2E2E0A0000A1
:100E9000436C6F636B2073657474696E677320694C
:100EA0006E697469616C697A65642E2E2E0A0A0077
:100EB0005365742D757020436F6D706C6574652E6D
:100EC0000A0A000070B44B4D2A6E296F11F0004FD2
:100ED00014BF01F0700002F03000202808BF46481F
:100EE00018D005DC88B1102808BF444812D009E0AA
:100EF000302808BF47F230500CD0702808BF4FF49C
:100F0000004007D070BC002070477C203C4B00EABA
:100F1000121018584FF0FF3311F0004F02D011F4A7
:100F2000006F06D001F0004C02F400645CEA040C8F
:100F300036D1D5F860C1D5F8644104F01F06C4F37A
:100F40000424641C761C16FB04F46400B0FBF4F06B
:100F5000CCF309044443CCF3892C00FB0CF0D5F806
:100F600010C004EB902042F480020CF4704CBCF5ED
:100F7000804F08BF234B13D009DCBCF5005F08BFCE
:100F8000214B0DD0BCF5405F08BF204B08E0BCF5FD
:100F9000E04F08BF1E4B03D0BCF5104F08BF1D4BE0
:100FA00012F4800F21D011F0004F19D011F0804FB2
:100FB00009D011F4006F0CD001F0004C02F4006273
:100FC0005CEA020205D0C1F3C551491CB0FBF1F047
:100FD0000BE04000C1F38651491CB0FBF1F004E086
:100FE000C2F3C351491CB0FBF1F0834238BF18462D
:100FF00070BC704700E00F4000093D000024F40081
:1010000070180000005A620200B4C40480F0FA02B2
:1010100040787D01002D3101434B30B4196E1A6FB9
:1010200021F4800141F4006142F4006419661C67F8
:1010300021EA000212F0010F14D060F00102114009
:101040009A159A651966D3F850C0D2021CF4807FB5
:1010500008D1521E04BF30BC7047D3F850C01CF4F6
:10106000807FF6D021F4FE6100F4FE621143DFF8C8
:10107000BCC024F0700222F0004200EA0C0C4CEAE2
:10108000020200F0080C42EACC0219661A6700F46A
:10109000005C21F4005122F400524CEA01014CEAB8
:1010A00002024FF0400CC3F858C012F0004F08BFC6
:1010B00019661A6718BF196621F00101DFF870C0C0
:1010C00021F0F86100EA0C0C4CEA010122F0FC521C
:1010D00000F0FC5C4CEA020210F0804F08BF22F0E6
:1010E000804209D0DFF84CC022F4800200EA0C0CE8
:1010F00041F480014CEA020210F4006F08BF4FF483
:1011000000400AD1D3F868C11CF0010F01D1401E84
:10111000F8D121F4006122F4006219661A6730BC2C
:101120001020FFF7BBB8000000E00F403000008047
:101130000100C00700004040C0F307230749C0B2C8
:10114000194401F07043C1F3130143EA411141EA2C
:10115000800040F0007001220260704700E60F40FE
:10116000C0F307220849C0B2114401F07042C1F334
:10117000130142EA411141EA800040F0007000682A
:10118000002818BF0120704700EA0F404FF0E02010
:10119000016941F00501016170474FF0E021401EF7
:1011A00048617047D0F818C01CF0080FFAD1D0F889
:1011B0002CC02CF0100CC0F82CC0D0F830C02CF093
:1011C000010C2CF4407CC0F830C0D0F830C0B1EB3A
:1011D000021F34BF4CF0200C2CF0200CC0F830C0A3
:1011E00038BF5208C900B1FBF2F1491C49088A090D
:1011F000426201F03F018162C36200218161C16AE4
:1012000041F01001C162016B40F2013211430163F0
:101210007047000003488169C906FCD40068C0B269
:101220007047000000C0004002498A699206FCD461
:101230000860704700C0004010B5154C2046FFF70D
:101240007BFF2046FFF78CFF0028FAD01148FFF7FC
:1012500073FF0120FFF71AFD40F20140FFF716FD72
:101260004FF0402402212046FFF74EFD0321204687
:10127000FFF74AFD0848FFF7CFFEFFF723FE0146C0
:10128000BDE8104060234FF416420448FFF78ABFC0
:10129000001800F0000800F0403D800700C000404A
:1012A0000FB4054B10B503A9044A029800F018F8D2
:1012B00010BC5DF814FB0000391400001000002081
:1012C00002E008C8121F08C1002AFAD1704770470F
:1012D000002001E001C1121F002AFBD1704700006D
:1012E0002DE9FF4F89B09B460446002506E02528DE
:1012F0000BD05A460B999047641C6D1C207800282F
:10130000F5D10DB02846BDE8F08F0027B846012280
:10131000474900E0074314F8013F203B02FA03F07D
:101320000842F7D120782E2819D114F8010F47F080
:1013300004072A280ED06FF02F022078A0F1300188
:1013400009290CD808EB880102EB410100EB0108E8
:10135000641CF2E70A98641C50F8048B0A90207809
:101360000028CED0642808D0692806D075281ED061
:101370005A460B9990476D1C58E00A994FF00A099C
:1013800001C90A91002802DA40422D2102E0390504
:1013900004D52B218DF82010012103E0F90704D09A
:1013A0002021F7E78A4608AE0DE00021FAE70A9906
:1013B0004FF00A0901C90A91F7E74946FEF771FFA4
:1013C000303106F8011D0028F7D1ADEB060000F121
:1013D0002009780701D44FF00108C84502DDA8EBC9
:1013E000090000E000208046002706E008A85A46D1
:1013F000C05D0B9990476D1C7F1C5745F6DB04E0E0
:1014000030205A460B9990476D1CB8F10001A8F1A5
:101410000108F5DC05E016F8010B5A460B999047D8
:101420006D1CB9F10001A9F10109F4DC641C65E748
:1014300009280100FFF7EEBE00B50A2808D00D28E4
:1014400006D01B2804D0C0B2FFF7EEFE012000BD7D
:101450000D20FFF7E9FE0A20F6E7FFF7EBBF0000DB
:1014600008B5FFF7DFFCFFF7E5F91BA0FFF718FF52
:101470002048FFF7F2FF00B1012008B1FFF770FA32
:10148000002480258DF800408DF801408DF8025031
:101490008DF8035018A0FFF703FF6846FFF7F8FA2E
:1014A00019A0FFF7FDFE1348FFF7D7FF8DF80040A6
:1014B0008DF801508DF802408DF803500EA0FFF713
:1014C000EFFE6846FFF7E4FA0FA0FFF7E9FE0948D0
:1014D000FFF7C3FFD6E70000726563696576653D77
:1014E00031206F72207472616E736D69743D303F8C
:1014F000000000000C00002073656E64696E6720B8
:101500006D6573736167650073656E642061676103
:10151000696E3F00000100024012401380238024C6
:10152000C034C035C045C046C056C057C067C0684B
:10153000C078C079004000401000000000800540E5
:101540001000000000500040110000000090054015
:1015500011000000006000401200000000A00540E3
:1015600012000000007000401300000000B00540B1
:1015700013000000004002401400000000C00540BD
:1015800014000000005002402E00000000D0054072
:101590002E000000006002402F00000000E0054027
:1015A0002F000000007002403000000000F00540F5
:1015B0003000000000D0034046000000000006405C
:1015C00046000000001006404700000000200640D2
:1015D00048000000003006407F0000000040064048
:1015E00080000000005006408400000000600640BB
:1015F0008C0000000040004010000000008005400A
:101600001000000000500040110000000090054054
:1016100011000000006000401200000000A0054022
:1016200012000000007000401300000000B00540F0
:1016300013000000004002401400000000C00540FC
:1016400014000000005002402E00000000D00540B1
:101650002E000000006002402F00000000E0054066
:101660002F000000007002403000000000F0054034
:101670003000000000D0034043000000000006409E
:101680004300000000100640440000000020064017
:1016900045000000003006405800000000400640B1
:1016A00059000000005006405C0000000060064049
:1016B00064000000007006406C00000000800640DE
:1016C0006D000000009006407F00000000400040D8
:1016D0000080054000500040009005400060004040
:1016E00000A005400070004000B0054000400240EE
:1016F00000C005400050024000D00540006002409C
:1017000000E005400070024000F0054000D00340BA
:101710000000064000100640001006400020064071
:1017200000200640003006400030064000400640E1
:101730000040064000500640005006400060064051
:1017400000600640007006400070064000800640C1
:101750000080064000900640009006400007000010
:101760000006000000050000000400000003000067
:101770000002000000010000000000000000000066
:1017800018ED00E01CED00E020ED00E000E400E0DA
:1017900004E400E008E400E00CE400E010E400E011
:1017A00014E400E018E400E01CE400E020E400E0C1
:1017B00024E400E028E400E02CE400E030E400E071
:1017C00034E400E038E400E03CE400E040E400E021
:1017D00044E400E048E400E04CE400E050E400E0D1
:1017E00054E400E058E400E05CE400E060E400E081
:1017F00064E400E068E400E06CE400E070E400E031
:1018000074E400E078E400E07CE400E080E400E0E0
:1018100084E400E088E400E000E100E004E100E0AE
:1018200008E100E00CE100E010E100E080E100E010
:1018300084E100E088E100E08CE100E090E100E07C
:1018400000E200E004E200E008E200E00CE200E078
:1018500010E200E080E200E084E200E088E200E0E4
:101860008CE200E090E200E000688909001C4E0E66
:1018700040420F0000201C0080841E0000802500D4
:10188000999E36000040380000093D0000803E006F
:1018900000004B00404B4C0000204E00808D5B0050
:1018A00000C05D000080700000127A0000007D0022
:1018B00080969800001BB7000080BB00C0E8CE00F7
:1018C000647ADA000024F4000000FA0080A8120113
:1018D000002D310100366E0140787D01400000008E
:1018E00000000000000100003E00080000000000B1
:1018F00000010000A0000000020000000001000044
:101900003454010000000000000100002B700600AC
:10191000000000000001000028000000000000009E
:10192000000100002700010000000000000100008D
:101930002000000000000000000100005000000036
:1019400002000000000100001AAC000000000000CE
:1019500000010000179409000000000000010000D1
:1019600016980500000000000001000014000000AF
:1019700000000000000100001380080000000000CB
:1019800000010000A00000000800000000010000AD
:10199000100000000000000000010000280000000E
:1019A00002000000000100004000000004000000F0
:1019B00000010000600000000000000000010000C5
:1019C0005D000C000000000000010000500000005D
:1019D00000000000000100004E00020000000000B6
:1019E0000001000041AC0100000000000001000007
:1019F0003C00000000000000000100003A800900E7
:101A000000000000000100003000000000000000A5
:101A1000000100002800000000000000000100009C
:101A20002700010000000000000100002360060004
:101A3000000000000001000021600800000000001C
:101A4000000100001E000000000000000001000076
:101A50001DC0040000000000000100005000000054
:101A6000020000000001000018000000000000005B
:101A70000001000014000000000000000001000050
:101A80006000000004000000000100000024F400D9
:101A900030003000005A62029100910000879303E9
:101AA000D200D20000B4C4041301130100E1F50513
:101AB00054015401000E270795019501DC1A00001E
:101AC000000000206C060000F4020000F01A000084
:101AD0006C0600202C010000D012000051320802D8
:101AE000FF2001FF01FF01FF01FF01FF0171000065
:040000050000026D88
:00000001FF
