:020000040000FA
:10000000700700206D0200008102000083020000E2
:10001000850200008502000085020000000000004B
:100020000000000000000000000000008502000049
:10003000850200000000000085020000850200002B
:100040008502000085020000850200008502000094
:100050008502000085020000850200008502000084
:100060008502000085020000850200008502000074
:100070008502000085020000850200008502000064
:100080008502000085020000850200008502000054
:100090008502000085020000850200008502000044
:1000A0008502000085020000850200008502000034
:1000B0008502000085020000850200008502000024
:1000C0008502000085020000850200008502000014
:1000D0008502000085020000850200008502000004
:1000E0008502000000000000000000008502000002
:1000F00085020000850200008502000085020000E4
:1001000085020000850200008502000085020000D3
:1001100000000000000000008502000085020000D1
:1001200085020000850200008502000085020000B3
:1001300085020000850200008502000085020000A3
:1001400000000000000000000000000000000000AF
:100150008502000085020000850200008502000083
:10016000000000000000000000000000000000008F
:10017000000000000000000000000000000000007F
:10018000000000000000000000000000000000006F
:10019000000000000000000000000000000000005F
:1001A000000000000000000000000000000000004F
:1001B0008502000085020000850200008502000023
:1001C0008502000085020000850200008502000013
:1001D0008502000085020000850200008502000003
:1001E000850200008502000085020000000000007A
:1001F000000000008502000085020000850200006A
:1002000085020000850200000000000000000000E0
:1002100085020000850200008502000085020000C2
:1002200085020000850200008502000085020000B2
:1002300085020000850200008502000085020000A2
:100240008502000085020000850200008502000092
:100250008502000085020000850200008502000082
:100260008502000085020000850200004EF68850DD
:10027000CEF20000016841F47001016000F004B8A2
:10028000FEE7FEE7FEE70000DFF80CD000F020F804
:1002900000480047B9130000700700200138FDD165
:1002A000704730B50B46014600202022012409E0AA
:1002B00021FA02F59D4205D303FA02F5491B04FA1F
:1002C00002F52844151EA2F10102F1DC30BD000048
:1002D000064C074D06E0E06840F0010394E8070093
:1002E00098471034AC42F6D3FFF7D2FF801A0000D3
:1002F000A01A000030B58C1810F8012B12F00F0373
:1003000001D110F8013B120906D110F8012B03E0CE
:1003100010F8015B01F8015B5B1EF9D101E001F807
:10032000013B521EFBD1A142E6D3002030BD0000AC
:10033000B1FBF2F3B1FBF3FC70B4944588BF5B1CD6
:10034000B3F5984F27D81322B3FBF2FC0CFB02F451
:100350009C4219D1114B03EB420333F8085C03684C
:100360009BB243F041040460ACF1010404F03F0689
:100370003543C560C4F38314846103600CFB02F051
:10038000B1FBF0F070BC7047521E042ADCD25B1C3B
:10039000B3F5984FD7D970BC00207047E013000028
:1003A000016821F001010160704701210160016ACB
:1003B00011F4004FFBD1B021416200214163816300
:1003C0000121026A12F4004FFBD10162491C20296D
:1003D000F7D90C2141620121026A12F4004FFBD1CE
:1003E0000162491C2029F7D940687047B1F5004FD8
:1003F00004BF40687047026A12F4004FFBD1082224
:10040000426201F03F010162016A11F4004FFBD129
:1004100070470268114301607047000070B50E4CD0
:100420000021204600F062F80C4DB0F5004F06D0D8
:1004300001280AD0BDE8704009A000F0D1BE00211B
:10044000204600F016F9012004E001212046FFF7C4
:10045000CDFF0020287070BD000004400000002087
:10046000556E65787065637465642043414E206203
:10047000757320696E746572727570740A0000007D
:100480002DE9F041154A00241368DFF854C0164DD9
:1004900003EA0C06134BA6F18057B7F5A02708D046
:1004A000126802EA0C02A2F1805CBCF5202C06D096
:1004B0000CE0984209D0A84208BF382406E09842D0
:1004C00008BF362402D0A84200D13724204600F0CD
:1004D00011FB2046BDE8F04100F0DABA00E00F4021
:1004E0000000FF700000044000100440002904BF19
:1004F0000069704701291CBF00207047D0F84011E7
:10050000D0F8440189B241EA004070472DE9FF4F1D
:100510004FF0000A016A11F4004FFBD1D2F80090AD
:10052000B9F5006F06D2117A11F0040F08BF4FF031
:10053000000B01D04FF0010B00274FF093083D4610
:1005400039463E46BC46052B24BF04B0BDE8F08FBB
:10055000DFE803F003071A0A14004FF480714D011D
:1005600010E04FF480710FE04FF4005569104FF622
:10057000FF7641F6FF7C4FF0D30805E04FF40055BD
:100580004FF490514FF0010A946841F6FF7314F054
:10059000080F0CD0BBF1000F08BF0026D2F804C032
:1005A0000EBF03EA8C0C1FFA8CF6CCF30C4C4FF008
:1005B000280E3EEA040E08BF4CF4004C4FF0180E13
:1005C0003EEA040E08BF4CF4804C14F0380F1CBFF8
:1005D00041F4805148F0400848F02008BBF1000F7A
:1005E00007D0C9F30C431FFA89F72B4343F4404962
:1005F00004E003EA89032B4343F40049D56805F07E
:100600000F030B4314F4007F08BF43F0800314F082
:10061000010F18BF43F4006314F0020F18BF43F436
:100620008063BAF1000F14D00021D2F810A000F1BD
:100630003C04002D0DD91AF80120491C8D4204D923
:100640001AF801B0491C42EA0B2244F8042BA942D3
:10065000F1D3C0F824808662C0F82CC00763C0F8CC
:1006600034908363019901F03F01016204B0BDE859
:10067000F08FC1B1012904BFD0F80011D0F80401F6
:1006800016D0022904BFD0F82011D0F824010FD0D1
:10069000032911BF0021D0F86011D0F8640141EAAC
:1006A00000410846704741686FF01F024260F8E75A
:1006B00041EA0041F5E7000010B5154800F0DCFC08
:1006C000144800F06FF9144800F06CF93021134819
:1006D00000F08AF9124800F0CFFC124C2046FFF7D8
:1006E00064FE00F08FFB01460F4A2046FFF720FE14
:1006F0000E492046FFF7C4FE0E212046FFF789FE73
:10070000372000F0C5F92046BDE81040FFF748BE8D
:10071000040800F00810040008140400004002401F
:10072000003400F00000044020A107001D04000078
:1007300086B0002701200597CDE90007029004202C
:1007400005ACCDE90304DFF89CB0DFF89C90DFF83E
:100750009CA03D4614264FF080086D1C042D00D14E
:100760000125012D04D0022D07D0032D0BD11AE055
:1007700084F800804046677003E02770404684F8A4
:100780000180A770E070A3786278217818A000F04B
:1007900027FD00236A4601215846FFF7B7FE761C65
:1007A000642E06D006E027706770404684F8028009
:1007B000E8E71426304600F0DDFD0F22022148460E
:1007C00000F04AF9304600F0D5FD002202214846EB
:1007D00000F042F99AF800000028BED00DA000F009
:1007E000FFFCBAE700000440005002400000002077
:1007F00053656E64696E6720636F6C6F7572097202
:100800003A20256409673A20256409623A20256464
:100810000A00000043414E20427573204572726FFA
:10082000720A000010B5054800F096FB00F04EFC7F
:10083000BDE81040024800F050BC0000403D800779
:100840000024F400D0F8003412F0010F14BF0B4361
:100850008B43C0F8003412F0020FD0F8202414BFEC
:10086000114322EA0101C0F8201470472DE9F0037A
:1008700001264FF0000C0325C2F3411706FA0CF4D1
:100880000C4211D0D0F8C48F4FEA4C0405FA04F999
:1008900028EA0908C0F8C48FD0F8C48F07FA04F416
:1008A00048EA0404C0F8C44F0CF1010C0CF0FF0C32
:1008B000BCF1080FE2D3D0F800C512F0010F14BF4D
:1008C0004CEA010C2CEA010CC0F800C5D0F804C5B4
:1008D00012F0020F14BF4CEA010C2CEA010CC0F814
:1008E00004C5D0F808C512F0040F14BF4CEA010C7F
:1008F0002CEA010CC0F808C5D0F818C512F0080F92
:1009000014BF4CEA010C2CEA010CC0F818C512F017
:10091000100FD0F83C2514BF0A438A43C0F83C2589
:10092000D0F80C2513F0010F14BF0A438A43C0F816
:100930000C25D0F8102513F0020F14BF0A438A4388
:10094000C0F81025D0F8142513F0040F14BF0A4383
:100950008A43C0F81425D0F81C2513F0080F14BFE3
:100960000A438A43C0F81C25D0F8442513F4007FBD
:1009700014BF0A438A43C0F84425D0F8402513F435
:10098000407F14BF0A438A43C0F84025D0F8282589
:10099000002B0CBF114322EA0101C0F82815BDE865
:1009A000F00370470E4AC0F30741D26E01238B401B
:1009B0001A420C4A1ABF02EBC101496852F83110C1
:1009C000020AD1F82C354FF00F0C0CFA02FC00F0A3
:1009D0000F0023EA0C0390401843C1F82C05704720
:1009E00000E00F409815000030B50C460546022285
:1009F000FFF728FF21462846BDE83040082366223D
:100A0000FFF734BF30B50C46054608230122FFF737
:100A10002DFF21462846BDE830400122FFF712BFD6
:100A200030B50C4605460222FFF70CFF214628464A
:100A3000BDE8304008230122FFF718BF30B50C464F
:100A400005460222FFF7FEFE21462846BDE830405B
:100A500008230122FFF70ABF40F821207047000059
:100A600010B5094800F008FB084C02212046FFF7AA
:100A7000C9FF04212046FFF7C5FF2046BDE810400E
:100A80000821FFF7BFBF0000050800F0005002403A
:100A90001649042804BF086840F4803018D005289F
:100AA00004BF086840F4003012D0062812D00F2886
:100AB00015D0102838BF7047103800F01F010122F0
:100AC00002FA01F142090A4850F822000160704719
:100AD00008607047086840F48020086070474FF055
:100AE000E020016941F002010161704724ED00E05E
:100AF000E416000030B40A4D2A680A4B9A421CBF23
:100B0000D5F800C0002207D05CF8224043F822400C
:100B1000521C9B2AF8D32B6043F8201030BC70473E
:100B200008ED00E0000400202DE9F0412DA000F0C8
:100B300057FB3A4800F03EFCC5B239A000F050FB2C
:100B4000364800F037FCC4B240A000F049FB3348FF
:100B500000F030FC434F4FF47A76012D08D0022D7F
:100B600019D0032D2AD0BDE8F0413FA000F038BBDA
:100B70000F2202213846FFF76FFFB6FBF4F000F0BA
:100B8000F9FB002202213846FFF766FFB6FBF4F0BE
:100B900000F0F0FBECE70F2204213846FFF75CFF82
:100BA000B6FBF4F000F0E6FB002204213846FFF724
:100BB00053FFB6FBF4F000F0DDFBECE70F22082159
:100BC0003846FFF749FFB6FBF4F000F0D3FB0022F4
:100BD00008213846FFF740FFB6FBF4F000F0CAFBEF
:100BE000ECE700005265642C20626C75652C206F68
:100BF0007220677265656E3F20456E7465722031A4
:100C00002C20322C206F7220332072657370656344
:100C1000746976656C792E0A0000000004000020DB
:100C2000486F77206D616E792074696D65732073EC
:100C3000686F756C6420697420626C696E6B2070DB
:100C40006572207365636F6E643F0A00466F7220A1
:100C5000686F77206D616E79207365636F6E647362
:100C60003F0A000000500240536F7272792C2074CA
:100C7000686174207761736E7420616E206F707488
:100C8000696F6E00084401686FF3520111430160FF
:100C900012F0020F14BFB0218C21016214BF4FF477
:100CA000306140F60C0141627047425842F0010247
:100CB000425070470844016811F0020F14BF5108F8
:100CC000511E01617047002A826814BF114322EA55
:100CD00001018160704721F03F031844036813F05D
:100CE000020F18BF520803699A1A11F0010F14BFBE
:100CF000C26182617047000070B5244800F0BCF901
:100D0000234800F0B9F92348FFF74CFE2248FFF7CB
:100D100049FE2248FFF746FE0E212148FFF780FEDC
:100D2000204C0022C0212046FFF7ACFFA515002271
:100D300029462046FFF7A6FF4FF4A0763246C02191
:100D40002046FFF7B7FF324629462046FFF7B2FF9D
:100D50006422C5212046FFF7BEFF6422A91D20465C
:100D6000FFF7B9FF6422E91D2046FFF7B4FFC02159
:100D70002046FFF79AFF29462046FFF796FF2046B8
:100D8000BDE870400122E021FFF79DBF050800F09B
:100D9000014000F00504050005080500050C0500EC
:100DA000005002400090024010B50C4800F018FAC4
:100DB0000B4800F0FFFA10F0FF0F01D0FFF7B4FE70
:100DC000084800F00DFA064800F0F4FA10F0FF0FA2
:100DD00003D0BDE81040FFF7ABBC10BD3C1A0000CB
:100DE00004000020E419000010B5FFF71BFDFFF719
:100DF00037FE00F0C1F9FFF75FFCBDE81040FFF7D8
:100E00007BBF000070B44B4D2A6E296F11F0004F6C
:100E100014BF01F0700002F03000202808BF4648DF
:100E200018D005DC88B1102808BF444812D009E06A
:100E3000302808BF47F230500CD0702808BF4FF45C
:100E4000004007D070BC002070477C203C4B00EA7B
:100E5000121018584FF0FF3311F0004F02D011F468
:100E6000006F06D001F0004C02F400645CEA040C50
:100E700036D1D5F860C1D5F8644104F01F06C4F33B
:100E80000424641C761C16FB04F46400B0FBF4F02C
:100E9000CCF309044443CCF3892C00FB0CF0D5F8C7
:100EA00010C004EB902042F480020CF4704CBCF5AE
:100EB000804F08BF234B13D009DCBCF5005F08BF8F
:100EC000214B0DD0BCF5405F08BF204B08E0BCF5BE
:100ED000E04F08BF1E4B03D0BCF5104F08BF1D4BA1
:100EE00012F4800F21D011F0004F19D011F0804F73
:100EF00009D011F4006F0CD001F0004C02F4006234
:100F00005CEA020205D0C1F3C551491CB0FBF1F007
:100F10000BE04000C1F38651491CB0FBF1F004E046
:100F2000C2F3C351491CB0FBF1F0834238BF1846ED
:100F300070BC704700E00F4000093D000024F40041
:100F40003C170000005A620200B4C40480F0FA02A8
:100F500040787D01002D3101434B30B4196E1A6F7A
:100F600021F4800141F4006142F4006419661C67B9
:100F700021EA000212F0010F14D060F001021140CA
:100F80009A159A651966D3F850C0D2021CF4807F76
:100F900008D1521E04BF30BC7047D3F850C01CF4B7
:100FA000807FF6D021F4FE6100F4FE621143DFF889
:100FB000BCC024F0700222F0004200EA0C0C4CEAA3
:100FC000020200F0080C42EACC0219661A6700F42B
:100FD000005C21F4005122F400524CEA01014CEA79
:100FE00002024FF0400CC3F858C012F0004F08BF87
:100FF00019661A6718BF196621F00101DFF870C081
:1010000021F0F86100EA0C0C4CEA010122F0FC52DC
:1010100000F0FC5C4CEA020210F0804F08BF22F0A6
:10102000804209D0DFF84CC022F4800200EA0C0CA8
:1010300041F480014CEA020210F4006F08BF4FF443
:1010400000400AD1D3F868C11CF0010F01D1401E45
:10105000F8D121F4006122F4006219661A6730BCED
:101060001020FFF71BB9000000E00F4030000080A7
:101070000100C00700004040C0F307230749C0B289
:10108000194401F07043C1F3130143EA411141EAED
:10109000800040F0007001220260704700E60F40BF
:1010A000C0F307220849C0B2114401F07042C1F3F5
:1010B000130142EA411141EA800040F000700068EB
:1010C000002818BF0120704700EA0F404FF0E020D1
:1010D000016941F00501016170474FF0E021401EB8
:1010E00048617047D0F818C01CF0080FFAD1D0F84A
:1010F0002CC02CF0100CC0F82CC0D0F830C02CF054
:10110000010C2CF4407CC0F830C0D0F830C0B1EBFA
:10111000021F34BF4CF0200C2CF0200CC0F830C063
:1011200038BF5208C900B1FBF2F1491C49088A09CD
:10113000426201F03F018162C36200218161C16AA4
:1011400041F01001C162016B40F2013211430163B1
:101150007047000003488169C906FCD40068C0B22A
:101160007047000000C0004002498A699206FCD422
:101170000860704700C0004010B5154C2046FFF7CE
:101180007BFF2046FFF78CFF0028FAD01148FFF7BD
:1011900073FF0120FFF706FC40F20140FFF702FC5D
:1011A0004FF0402402212046FFF748FC032120464F
:1011B000FFF744FC0848FFF7CFFEFFF723FE014688
:1011C000BDE8104060234FF416420448FFF78ABF81
:1011D000001800F0000800F0403D800700C000400B
:1011E0000FB4054B10B503A9044A029800F018F893
:1011F00010BC5DF814FB00009313000008000020F1
:1012000002E008C8121F08C1002AFAD170477047CF
:10121000002001E001C1121F002AFBD1704700002D
:101220002DE9FF4F89B09B460446002506E025289E
:101230000BD05A460B999047641C6D1C20780028EF
:10124000F5D10DB02846BDE8F08F0027B846012241
:10125000474900E0074314F8013F203B02FA03F03E
:101260000842F7D120782E2819D114F8010F47F041
:1012700004072A280ED06FF02F022078A0F1300149
:1012800009290CD808EB880102EB410100EB0108A9
:10129000641CF2E70A98641C50F8048B0A902078CA
:1012A0000028CED0642808D0692806D075281ED022
:1012B0005A460B9990476D1C58E00A994FF00A095D
:1012C00001C90A91002802DA40422D2102E03905C5
:1012D00004D52B218DF82010012103E0F90704D05B
:1012E0002021F7E78A4608AE0DE00021FAE70A99C7
:1012F0004FF00A0901C90A91F7E74946FEF7D1FF05
:10130000303106F8011D0028F7D1ADEB060000F1E1
:101310002009780701D44FF00108C84502DDA8EB89
:10132000090000E000208046002706E008A85A4691
:10133000C05D0B9990476D1C7F1C5745F6DB04E0A0
:1013400030205A460B9990476D1CB8F10001A8F166
:101350000108F5DC05E016F8010B5A460B99904799
:101360006D1CB9F10001A9F10109F4DC641C65E709
:101370000928010010B50446FFF744FD40F6B831D6
:10138000B0FBF1F06043BDE81040FEF787BFFFF708
:10139000E1BE00B50A2808D00D2806D01B2804D0CD
:1013A000C0B2FFF7E1FE012000BD0D20FFF7DCFE1B
:1013B0000A20F6E7FFF7EBBF10B5FFF715FDFFF7C3
:1013C000F3FC0548FFF70CFF0448FFF7F3FF00B1FB
:1013D00001200028F3D110BD88190000040000206E
:1013E000000100024012401380238024C034C03525
:1013F000C045C046C056C057C067C068C078C079F5
:101400000040004010000000008005401000000077
:101410000050004011000000009005401100000045
:10142000006000401200000000A005401200000013
:10143000007000401300000000B0054013000000E1
:10144000004002401400000000C0054014000000ED
:10145000005002402E00000000D005402E00000089
:10146000006002402F00000000E005402F00000057
:10147000007002403000000000F005403000000025
:1014800000D0034046000000000006404600000077
:101490000010064047000000002006404800000001
:1014A000003006407F000000004006408000000041
:1014B0000050064084000000006006408C000000E0
:1014C00000400040100000000080054010000000B7
:1014D0000050004011000000009005401100000085
:1014E000006000401200000000A005401200000053
:1014F000007000401300000000B005401300000021
:10150000004002401400000000C00540140000002C
:10151000005002402E00000000D005402E000000C8
:10152000006002402F00000000E005402F00000096
:10153000007002403000000000F005403000000064
:1015400000D00340430000000000064043000000BC
:101550000010064044000000002006404500000046
:1015600000300640580000000040064059000000CE
:10157000005006405C00000000600640640000006F
:10158000007006406C000000008006406D00000006
:10159000009006407F0000000040004000800540B1
:1015A00000500040009005400060004000A0054051
:1015B0000070004000B005400040024000C00540FF
:1015C0000050024000D005400060024000E00540AD
:1015D0000070024000F0054000D0034000000640CB
:1015E0000010064000100640002006400020064083
:1015F00000300640003006400040064000400640F3
:101600000050064000500640006006400060064062
:1016100000700640007006400080064000800640D2
:101620000090064000900640000700000006000001
:10163000000500000004000000030000000200009C
:1016400000010000000000000000000018ED00E0B4
:101650001CED00E020ED00E000E400E004E400E028
:1016600008E400E00CE400E010E400E014E400E032
:1016700018E400E01CE400E020E400E024E400E0E2
:1016800028E400E02CE400E030E400E034E400E092
:1016900038E400E03CE400E040E400E044E400E042
:1016A00048E400E04CE400E050E400E054E400E0F2
:1016B00058E400E05CE400E060E400E064E400E0A2
:1016C00068E400E06CE400E070E400E074E400E052
:1016D00078E400E07CE400E080E400E084E400E002
:1016E00088E400E000E100E004E100E008E100E05F
:1016F0000CE100E010E100E080E100E084E100E0C6
:1017000088E100E08CE100E090E100E000E200E030
:1017100004E200E008E200E00CE200E010E200E099
:1017200080E200E084E200E088E200E08CE200E099
:1017300090E200E000688909001C4E0E40420F0054
:1017400000201C0080841E0000802500999E360029
:101750000040380000093D0000803E0000004B00C2
:10176000404B4C0000204E00808D5B0000C05D00AF
:101770000080700000127A0000007D0080969800C2
:10178000001BB7000080BB00C0E8CE00647ADA001E
:101790000024F4000000FA0080A81201002D31019D
:1017A00000366E0140787D0140000000000000001E
:1017B000000100003E0008000000000000010000E1
:1017C000A0000000020000000001000034540100ED
:1017D00000000000000100002B7006000000000067
:1017E00000010000280000000000000000010000CF
:1017F00027000100000000000001000020000000A0
:101800000000000000010000500000000200000085
:10181000000100001AAC0000000000000001000000
:101820001794090000000000000100001698050050
:101830000000000000010000140000000000000093
:1018400000010000138008000000000000010000FB
:10185000A0000000080000000001000010000000CF
:10186000000000000001000028000000020000004D
:101870000001000040000000040000000001000022
:101880006000000000000000000100005D000C008E
:1018900000000000000100005000000000000000F7
:1018A000000100004E0002000000000000010000E6
:1018B00041AC010000000000000100003C000000FD
:1018C00000000000000100003A8009000000000054
:1018D00000010000300000000000000000010000D6
:1018E00028000000000000000001000027000100A7
:1018F000000000000001000023600600000000005E
:10190000000100002160080000000000000100004C
:101910001E00000000000000000100001DC00400C7
:101920000000000000010000500000000200000064
:10193000000100001800000000000000000100008D
:101940001400000000000000000100006000000022
:1019500004000000000100000024F400300030000A
:10196000005A62029100910000879303D200D200D6
:1019700000B4C4041301130100E1F505540154013E
:10198000000E270795019501576F756C6420796FDC
:1019900075206C696B6520746F2072657475726E4A
:1019A00020746F20746865206D656E75206F7220DD
:1019B0007465726D696E61746520746865207072FB
:1019C0006F6772616D3F2028313D636F6E74696E81
:1019D00075652C20303D7465726D696E6174652982
:1019E00000000000576F756C6420796F75206C697A
:1019F0006B6520746F20666C61736820616E204C8B
:101A00004544206F6E2074686520736C6176652094
:101A1000626F617264207468726F756768207468A1
:101A2000652043414E3F0A202831203D20596573EF
:101A30002C2030203D204E6F0A000000576F756C3F
:101A40006420796F75206C696B6520746F20666CFB
:101A500061736820616E204C4544206F6E2074686D
:101A6000697320626F6172643F0A202831203D2033
:101A70005965732C2030203D204E6F0A0000000075
:101A8000A01A0000000000206C060000F402000014
:101A9000B01A00006C0600200401000010120000C3
:101AA00001FF01FF01FF01FF01FF01FF01790000BC
:040000050000026D88
:00000001FF
