:020000040000FA
:10000000080100206D020000810200008302000050
:10001000850200008502000085020000000000004B
:100020000000000000000000000000008502000049
:10003000850200000000000085020000850200002B
:100040008502000085020000850200008502000094
:100050008502000085020000850200008502000084
:100060008502000085020000850200008502000074
:100070008502000085020000850200008502000064
:100080008502000085020000850200008502000054
:100090008502000085020000850200008502000044
:1000A0008502000085020000850200008502000034
:1000B0008502000085020000850200008502000024
:1000C0008502000085020000850200008502000014
:1000D0008502000085020000850200008502000004
:1000E0008502000000000000000000008502000002
:1000F00085020000850200008502000085020000E4
:1001000085020000850200008502000085020000D3
:1001100000000000000000008502000085020000D1
:1001200085020000850200008502000085020000B3
:1001300085020000850200008502000085020000A3
:1001400000000000000000000000000000000000AF
:100150008502000085020000850200008502000083
:10016000000000000000000000000000000000008F
:10017000000000000000000000000000000000007F
:10018000000000000000000000000000000000006F
:10019000000000000000000000000000000000005F
:1001A000000000000000000000000000000000004F
:1001B0008502000085020000850200008502000023
:1001C0008502000085020000850200008502000013
:1001D0008502000085020000850200008502000003
:1001E000850200008502000085020000000000007A
:1001F000000000008502000085020000850200006A
:1002000085020000850200000000000000000000E0
:1002100085020000850200008502000085020000C2
:1002200085020000850200008502000085020000B2
:1002300085020000850200008502000085020000A2
:100240008502000085020000850200008502000092
:100250008502000085020000850200008502000082
:100260008502000085020000850200004EF68850DD
:10027000CEF20000016841F47001016000F004B8A2
:10028000FEE7FEE7FEE70000DFF80CD000F00AF81A
:100290000048004781090000080100200138FDD115
:1002A00070470000064C074D06E0E06840F001038F
:1002B00094E8070098471034AC42F6D3FFF7E8FF04
:1002C000D80F0000F80F000010B5054800F0CAF97B
:1002D00000F082FABDE81040024800F084BA000045
:1002E000403D80070024F400D0F8003412F0010FE4
:1002F00014BF0B438B43C0F8003412F0020FD0F848
:10030000202414BF114322EA0101C0F820147047D1
:100310002DE9F00301264FF0000C0325C2F341172D
:1003200006FA0CF40C4211D0D0F8C48F4FEA4C04FA
:1003300005FA04F928EA0908C0F8C48FD0F8C48F78
:1003400007FA04F448EA0404C0F8C44F0CF1010CA5
:100350000CF0FF0CBCF1080FE2D3D0F800C512F08E
:10036000010F14BF4CEA010C2CEA010CC0F800C5C7
:10037000D0F804C512F0020F14BF4CEA010C2CEAAD
:10038000010CC0F804C5D0F808C512F0040F14BF62
:100390004CEA010C2CEA010CC0F808C5D0F818C5CD
:1003A00012F0080F14BF4CEA010C2CEA010CC0F843
:1003B00018C512F0100FD0F83C2514BF0A438A4329
:1003C000C0F83C25D0F80C2513F0010F14BF0A43E8
:1003D0008A43C0F80C25D0F8102513F0020F14BF83
:1003E0000A438A43C0F81025D0F8142513F0040FEF
:1003F00014BF0A438A43C0F81425D0F81C2513F013
:10040000080F14BF0A438A43C0F81C25D0F84425BE
:1004100013F4007F14BF0A438A43C0F84425D0F880
:10042000402513F4407F14BF0A438A43C0F8402597
:10043000D0F82825002B0CBF114322EA0101C0F897
:100440002815BDE8F00370470E4AC0F30741D26E8D
:1004500001238B401A420C4A1ABF02EBC1014968C2
:1004600052F83110020AD1F82C354FF00F0C0CFA6B
:1004700002FC00F00F0023EA0C0390401843C1F87F
:100480002C05704700E00F406C0C000030B50C46A6
:10049000054608230122FFF73BFF21462846BDE819
:1004A00030400122FFF720BF30B50C46054602223E
:1004B000FFF71AFF21462846BDE8304008230122F5
:1004C000FFF726BF40F821207047000010B509480B
:1004D00000F058F9084C02212046FFF7D7FF04210D
:1004E0002046FFF7D3FF2046BDE810400821FFF764
:1004F000CDBF0000050800F00050024010B5FFF726
:10050000E3FEFFF7E3FFBDE8104000F0BBB90000D9
:1005100070B44B4D2A6E296F11F0004F14BF01F0DB
:10052000700002F03000202808BF464818D005DCD3
:1005300088B1102808BF444812D009E0302808BF0D
:1005400047F230500CD0702808BF4FF4004007D05D
:1005500070BC002070477C203C4B00EA12101858F9
:100560004FF0FF3311F0004F02D011F4006F06D0AE
:1005700001F0004C02F400645CEA040C36D1D5F8BA
:1005800060C1D5F8644104F01F06C4F30424641C60
:10059000761C16FB04F46400B0FBF4F0CCF3090401
:1005A0004443CCF3892C00FB0CF0D5F810C004EBCD
:1005B000902042F480020CF4704CBCF5804F08BFD0
:1005C000234B13D009DCBCF5005F08BF214B0DD0D5
:1005D000BCF5405F08BF204B08E0BCF5E04F08BF0A
:1005E0001E4B03D0BCF5104F08BF1D4B12F4800FFB
:1005F00021D011F0004F19D011F0804F09D011F423
:10060000006F0CD001F0004C02F400625CEA0202C0
:1006100005D0C1F3C551491CB0FBF1F00BE040001F
:10062000C1F38651491CB0FBF1F004E0C2F3C351A1
:10063000491CB0FBF1F0834238BF184670BC7047CC
:1006400000E00F4000093D000024F400040D00000C
:10065000005A620200B4C40480F0FA0240787D01BE
:10066000002D3101434B30B4196E1A6F21F4800113
:1006700041F4006142F4006419661C6721EA00023B
:1006800012F0010F14D060F0010211409A159A6522
:100690001966D3F850C0D2021CF4807F08D1521ED4
:1006A00004BF30BC7047D3F850C01CF4807FF6D034
:1006B00021F4FE6100F4FE621143DFF8BCC024F0B7
:1006C000700222F0004200EA0C0C4CEA020200F038
:1006D000080C42EACC0219661A6700F4005C21F4A7
:1006E000005122F400524CEA01014CEA02024FF0A0
:1006F000400CC3F858C012F0004F08BF19661A67C3
:1007000018BF196621F00101DFF870C021F0F8610F
:1007100000EA0C0C4CEA010122F0FC5200F0FC5CF7
:100720004CEA020210F0804F08BF22F0804209D04C
:10073000DFF84CC022F4800200EA0C0C41F4800186
:100740004CEA020210F4006F08BF4FF400400AD1D7
:10075000D3F868C11CF0010F01D1401EF8D121F47B
:10076000006122F4006219661A6730BC1020FFF79E
:1007700095BD000000E00F40300000800100C00780
:1007800000004040C0F307230749C0B2194401F0FC
:100790007043C1F3130143EA411141EA800040F084
:1007A000007001220260704700E60F40C0F307228C
:1007B0000849C0B2114401F07042C1F3130142EA8A
:1007C000411141EA800040F000700068002818BF25
:1007D0000120704700EA0F404FF0E020016941F02E
:1007E0000501016170474FF0E021401E48617047EC
:1007F000D0F818C01CF0080FFAD1D0F82CC02CF09B
:10080000100CC0F82CC0D0F830C02CF0010C2CF427
:10081000407CC0F830C0D0F830C0B1EB021F34BF0C
:100820004CF0200C2CF0200CC0F830C038BF52081F
:10083000C900B1FBF2F1491C49088A09426201F082
:100840003F018162C36200218161C16A41F01001F0
:10085000C162016B40F20132114301637047000035
:1008600003488169C906FCD40068C0B27047000023
:1008700000C0004002498A699206FCD408607047B3
:1008800000C0004010B5154C2046FFF77BFF204606
:10089000FFF78CFF0028FAD01148FFF773FF012003
:1008A000FFF7D2FD40F20140FFF7CEFD4FF04024AC
:1008B00002212046FFF7F8FD03212046FFF7F4FD53
:1008C0000848FFF7CFFEFFF723FE0146BDE81040C2
:1008D00060234FF416420448FFF78ABF001800F067
:1008E000000800F0403D800700C00040014A024976
:1008F00000F013B85B0900000400002002E008C803
:10090000121F08C1002AFAD170477047002001E089
:1009100001C1121F002AFBD170472DE9F041164694
:100920000F460446002503E03946B047641C6D1CA1
:1009300020780028F8D12846BDE8F08110B504469B
:10094000FFF7E6FD40F6B831B0FBF1F06043BDE8DB
:100950001040FFF7A3BCFFF783BF00B50A2808D0FB
:100960000D2806D01B2804D0C0B2FFF783FF01205A
:1009700000BD0D20FFF77EFF0A20F6E7FFF7EBBF73
:100980002DE9F041FFF7BAFD2F48FFF7AFFF2F48E1
:10099000FFF7F4FF10F0FF0F19D02DA0FFF7A6FF0F
:1009A0002A48FFF7EBFFC5B237A0FFF79FFF2748A4
:1009B000FFF7E4FF3F4F04464FF47A76012D09D04C
:1009C000022D1AD0032D2BD03BA0FFF78FFF002064
:1009D000BDE8F0810F2202213846FFF773FDB6FB18
:1009E000F4F0FFF7ABFF002202213846FFF76AFD63
:1009F000B6FBF4F0FFF7A2FFECE70F220421384624
:100A0000FFF760FDB6FBF4F0FFF798FF002204212A
:100A10003846FFF757FDB6FBF4F0FFF78FFFECE722
:100A20000F2208213846FFF74DFDB6FBF4F0FFF723
:100A300085FF002208213846FFF744FDB6FBF4F09D
:100A4000FFF77CFFECE70000500F000000000020E3
:100A50005265642C20626C75652C206F7220677261
:100A600065656E3F20456E74657220312C20322CF6
:100A7000206F7220332072657370656374697665C8
:100A80006C792E0A00000000486F77206D616E7946
:100A90002074696D65732073686F756C6420697468
:100AA00020626C696E6B20706572207365636F6E77
:100AB000643F0A0000500240736F7272792C2074F8
:100AC000686174207761736E7420616E206F70743A
:100AD000696F6E000040004010000000008005407B
:100AE0001000000000500040110000000090054080
:100AF00011000000006000401200000000A005404E
:100B000012000000007000401300000000B005401B
:100B100013000000004002401400000000C0054027
:100B200014000000005002402E00000000D00540DC
:100B30002E000000006002402F00000000E0054091
:100B40002F000000007002403000000000F005405F
:100B50003000000000D003404600000000000640C6
:100B6000460000000010064047000000002006403C
:100B700048000000003006407F00000000400640B2
:100B80008000000000500640840000000060064025
:100B90008C00000000400040100000000080054074
:100BA00010000000005000401100000000900540BF
:100BB00011000000006000401200000000A005408D
:100BC00012000000007000401300000000B005405B
:100BD00013000000004002401400000000C0054067
:100BE00014000000005002402E00000000D005401C
:100BF0002E000000006002402F00000000E00540D1
:100C00002F000000007002403000000000F005409E
:100C10003000000000D00340430000000000064008
:100C20004300000000100640440000000020064081
:100C3000450000000030064058000000004006401B
:100C400059000000005006405C00000000600640B3
:100C500064000000007006406C0000000080064048
:100C60006D000000009006407F0000000040004042
:100C700000800540005000400090054000600040AA
:100C800000A005400070004000B005400040024058
:100C900000C005400050024000D005400060024006
:100CA00000E005400070024000F0054000D0034025
:100CB00000000640001006400010064000200640DC
:100CC000002006400030064000300640004006404C
:100CD00000400640005006400050064000600640BC
:100CE000006006400070064000700640008006402C
:100CF0000080064000900640009006400068890988
:100D0000001C4E0E40420F0000201C0080841E007C
:100D100000802500999E36000040380000093D0003
:100D200000803E0000004B00404B4C0000204E0075
:100D3000808D5B0000C05D000080700000127A00B2
:100D400000007D0080969800001BB7000080BB006B
:100D5000C0E8CE00647ADA000024F4000000FA0053
:100D600080A81201002D310100366E0140787D010E
:100D70004000000000000000000100003E000800EC
:100D80000000000000010000A000000002000000C0
:100D900000010000345401000000000000010000C8
:100DA0002B70060000000000000100002800000079
:100DB000000000000001000027000100000000000A
:100DC0000001000020000000000000000001000001
:100DD0005000000002000000000100001AAC0000FA
:100DE000000000000001000017940900000000004E
:100DF000000100001698050000000000000100003E
:100E00001400000000000000000100001380080032
:100E10000000000000010000A00000000800000029
:100E200000010000100000000000000000010000B0
:100E30002800000002000000000100004000000047
:100E4000040000000001000060000000000000003D
:100E5000000100005D000C00000000000001000027
:100E60005000000000000000000100004E000200E1
:100E7000000000000001000041AC01000000000083
:100E8000000100003C000000000000000001000024
:100E90003A8009000000000000010000300000005E
:100EA0000000000000010000280000000000000019
:100EB0000001000027000100000000000001000008
:100EC000236006000000000000010000216008000F
:100ED00000000000000100001E00000000000000F3
:100EE000000100001DC0040000000000000100001F
:100EF0005000000002000000000100001800000087
:100F000000000000000100001400000000000000CC
:100F1000000100006000000004000000000100006B
:100F20000024F40030003000005A62029100910069
:100F300000879303D200D20000B4C404130113014C
:100F400000E1F50554015401000E270795019501B4
:100F5000576F756C6420796F75206C696B652074B0
:100F60006F20666C61736820616E204C4544206F71
:100F70006620414E5920636F6C6F7220796F752027
:100F800077616E74213F200A4F6620636F7572731C
:100F90006520796F7520646F2C20627574206A75E6
:100FA000737420746F20626520737572652C2065E0
:100FB0006E7465722061206F6E6520696620736FA4
:100FC0002C20616E642061207A65726F2069662032
:100FD0006E6F742E0A000000F80F00000000002061
:100FE00008000000FC0800000010000008000020BD
:100FF000000100000C0900000000000000000000DB
:040000050000026D88
:00000001FF
